:100000000C945E000C9486000C9486000C94860080
:100010000C9486000C9486000C9486000C94860048
:100020000C9486000C9486000C9486000C94860038
:100030000C9486000C9486000C9486000C94860028
:100040000C940F030C9486000C947F030C945903BA
:100050000C9486000C9486000C9486000C94860008
:100060000C9486000C9486000000000024002700F9
:100070002A0000000000250028002B0004040404CE
:100080000404040402020202020203030303030342
:10009000010204081020408001020408102001021F
:1000A00004081020000000080002010000030407FB
:1000B0000000000000000000B103000511241FBE75
:1000C000CFEFD8E0DEBFCDBF22E0A0E8B1E001C0B5
:1000D0001D92AC33B207E1F711E0A0E0B1E0E0ED32
:1000E000FEE002C005900D92A038B107D9F710E0EC
:1000F000CDE5D0E004C02197FE010E944905CC3532
:10010000D107C9F70E94EF030C945B070C94000021
:10011000E1EBF0E02491EDE9F0E09491E9E8F0E022
:10012000E491EE2309F43BC0222339F1233091F00E
:1001300038F42130A9F0223001F524B52F7D12C00A
:10014000273091F02830A1F02430B9F420918000BC
:100150002F7D03C0209180002F77209380000DC059
:1001600024B52F7724BD09C02091B0002F7703C09C
:100170002091B0002F7D2093B000F0E0EE0FFF1F24
:10018000EE58FF4FA591B4912FB7F894EC918111DF
:1001900003C090959E2301C09E2B9C932FBF089572
:1001A0003FB7F8948091850190918601A0918701D5
:1001B000B091880126B5A89B05C02F3F19F0019684
:1001C000A11DB11D3FBFBA2FA92F982F8827820FDD
:1001D000911DA11DB11DBC01CD0142E0660F771F2D
:1001E000881F991F4A95D1F708958F929F92AF92D9
:1001F000BF92CF92DF92EF92FF926B017C010E943F
:10020000D0004B015C01C114D104E104F104F1F010
:100210000E94D000DC01CB0188199909AA09BB0909
:10022000883E9340A105B10570F321E0C21AD108C0
:10023000E108F10888EE880E83E0981EA11CB11C2D
:10024000C114D104E104F10419F7DDCFFF90EF9060
:10025000DF90CF90BF90AF909F908F900895CF92F6
:10026000DF92EF92FF920F931F93CF93DF936C0176
:100270007A018B01C0E0D0E0CE15DF0589F0D8010E
:100280006D918D01D601ED91FC910190F081E02DF1
:10029000C6010995892B11F47E0102C02196ECCF8D
:1002A000C701DF91CF911F910F91FF90EF90DF90E9
:1002B000CF900895089580E090E00895FC01538D5B
:1002C000448D252F30E0842F90E0821B930B541730
:1002D00010F0CF96089501970895FC01918D828DBD
:1002E000981761F0828DDF01A80FB11D5D968C918A
:1002F000928D9F5F9F73928F90E008958FEF9FEF95
:100300000895FC01918D828D981731F0828DE80F50
:10031000F11D858D90E008958FEF9FEF0895FC010A
:10032000918D228D892F90E0805C9F4F821B9109D7
:100330008F739927089589E891E00E948F0121E049
:10034000892B09F420E0822F0895FC01848DDF01C0
:10035000A80FB11DA35ABF4F2C91848D90E0019638
:100360008F739927848FA689B7892C93A089B18927
:100370008C9180648C93938D848D981306C0028831
:10038000F389E02D80818F7D80830895EF92FF9225
:100390000F931F93CF93DF93EC0181E0888F9B8DA8
:1003A0008C8D981305C0E889F989808185FD24C06A
:1003B000F62E0B8D10E00F5F1F4F0F731127E02EED
:1003C0008C8DE8120CC00FB607FCFACFE889F989CA
:1003D000808185FFF5CFCE010E94A501F1CF8B8DE5
:1003E000FE01E80FF11DE35AFF4FF0820B8FEA89FF
:1003F000FB898081806207C0EE89FF896083E8897C
:10040000F98980818064808381E090E0DF91CF91E1
:100410001F910F91FF90EF900895CF93DF93EC0120
:10042000888D8823C9F0EA89FB89808185FD05C014
:10043000A889B9898C9186FD0FC00FB607FCF5CF4E
:10044000808185FFF2CFA889B9898C9185FFEDCF96
:10045000CE010E94A501E7CFDF91CF91089580E002
:1004600090E0892B29F00E949B0181110C940000DF
:100470000895CF93DF93FC014481558160817181A0
:1004800089E891E00E942F01EC0142E050E068E130
:1004900071E089E891E00E942F018C0F9D1FDF9190
:1004A000CF910895CF93DF93EC01888199810097D4
:1004B00011F00E94E405198218821D821C821B82A1
:1004C0001A82DF91CF9108950E9446070F931F93E0
:1004D000CF93DF93EC0188819981009729F02A81DD
:1004E0003B812617370788F48B016F5F7F4F0E948F
:1004F0007C06009761F0998388831B830A832C8193
:100500003D81232B11F4FC01108281E001C080E0C9
:10051000DF91CF911F910F910895EF92FF920F936A
:100520001F93CF93DF93FC01248135816115710501
:1005300011F480E019C041155105A9F07B01EC01CF
:100540008A01020F131FB8010E946602882389F3F3
:10055000288139818C819D81B701820F931F0E9470
:1005600054071D830C8381E0DF91CF911F910F9180
:10057000FF90EF900895CF93DF93EC016115710523
:1005800061F0FB0101900020E9F73197AF01461BB4
:10059000570B0E948D02811103C0CE010E945202AE
:1005A000CE01DF91CF910895EF92FF920F931F93A9
:1005B000CF93DF93EC01198218821B821A821D826D
:1005C0001C826115710521F18B01FB010190002056
:1005D000E9F731977F01E61AF70AB7010E94660230
:1005E000811109C0CE01DF91CF911F910F91FF9032
:1005F000EF900C945202FD82EC82B80188819981BF
:10060000DF91CF911F910F91FF90EF900C945407C1
:10061000DF91CF911F910F91FF90EF9008951F925E
:100620000F920FB60F9211242F933F938F939F93A6
:10063000AF93BF938091810190918201A09183013A
:10064000B09184013091800123E0230F2D3720F4F5
:100650000196A11DB11D05C026E8230F0296A11D1C
:10066000B11D209380018093810190938201A0931A
:100670008301B09384018091850190918601A091BE
:100680008701B09188010196A11DB11D809385015C
:1006900090938601A0938701B0938801BF91AF9199
:1006A0009F918F913F912F910F900FBE0F901F90B0
:1006B00018951F920F920FB60F9211242F933F930C
:1006C0004F935F936F937F938F939F93AF93BF935A
:1006D000EF93FF9389E891E00E94A501FF91EF91CC
:1006E000BF91AF919F918F917F916F915F914F914A
:1006F0003F912F910F900FBE0F901F9018951F9252
:100700000F920FB60F9211242F938F939F93EF9315
:10071000FF93E0919901F0919A018081E0919F010E
:10072000F091A00182FD12C090818091A2018F5FA3
:100730008F732091A301821751F0E091A201F0E0A4
:10074000E757FE4F958F8093A20101C08081FF91F2
:10075000EF919F918F912F910F900FBE0F901F904F
:100760001895E9E8F1E01382128288EE93E0A0E0A8
:10077000B0E084839583A683B7838AE091E0918378
:10078000808385EC90E09587848784EC90E0978760
:10079000868780EC90E0918B808B81EC90E0938B4E
:1007A000828B82EC90E0958B848B86EC90E0978B2B
:1007B000868B118E128E138E148E6BE171E082E3A4
:1007C00092E00E94D40269E371E08CE292E00E9420
:1007D000D40260E571E086E292E00C94D402CF93FB
:1007E000DF9300D000D000D0CDB7DEB7789484B5C9
:1007F000826084BD84B5816084BD85B5826085BD1D
:1008000085B5816085BD80916E00816080936E00AA
:10081000109281008091810082608093810080919C
:10082000810081608093810080918000816080934D
:1008300080008091B10084608093B1008091B0000D
:1008400081608093B00080917A00846080937A0008
:1008500080917A00826080937A0080917A00816032
:1008600080937A0080917A00806880937A00109259
:10087000C10064EF71E080E090E00E94F500E0913B
:100880009901F0919A0182E08083E0919501F091C5
:1008900096011082E0919701F09198018FEC80838E
:1008A0001092A101E0919D01F0919E0186E080836C
:1008B000E0919B01F0919C01808180618083E091B7
:1008C0009B01F0919C01808188608083E0919B0175
:1008D000F0919C01808180688083E0919B01F09180
:1008E0009C0180818F7D808382E392E00E943902A7
:1008F00066E571E0CE0101960E94D402409130027B
:100900005091310260912C0270912D02CE0101961E
:100910000E948D02811104C0CE0101960E945202F4
:1009200064E671E0CE0101960E94BB020E9439028A
:1009300089819A810E94E4056DE671E0CE010196FD
:100940000E94D40240912A0250912B02609126020B
:1009500070912702CE0101960E948D02811104C080
:10096000CE0101960E94520269E171E0CE0101962A
:100970000E94BB020E94390289819A810E94E4058B
:10098000EDE9F0E02491E9E8F0E08491882399F022
:1009900090E0880F991FFC01E859FF4FA591B49191
:1009A000FC01EE58FF4F859194918FB7F894EC912C
:1009B000E22BEC938FBF81E00E94880043E050E07F
:1009C00067E771E089E891E00E942F0168EE73E02B
:1009D00080E090E00E94F50080E00E94880044E002
:1009E00050E06BE771E089E891E00E942F0168EE2A
:1009F00073E080E090E00E94F5000E942F02DBCFC0
:100A000080912602909127020E94E40580912C0299
:100A100090912D020E94E405809132029091330260
:100A20000C94E4052F923F924F925F926F927F92C7
:100A30008F929F92AF92BF92CF92DF92EF92FF92EE
:100A40000F931F93CF93DF93CDB7DEB7CA1BDB0B9A
:100A50000FB6F894DEBF0FBECDBF09942A8839883F
:100A600048885F846E847D848C849B84AA84B98446
:100A7000C884DF80EE80FD800C811B81AA81B98152
:100A8000CE0FD11D0FB6F894DEBF0FBECDBFED0166
:100A90000895EE0FFF1F0590F491E02D0994CF9378
:100AA000DF938230910510F482E090E0E0913A0209
:100AB000F0913B0220E030E0C0E0D0E0309711F14F
:100AC0004081518148175907C0F04817590761F410
:100AD00082819381209719F09B838A832BC0909306
:100AE0003B0280933A0226C02115310519F04217C6
:100AF000530718F49A01BE01DF01EF010280F38170
:100B0000E02DDCCF2115310509F1281B390B2430EC
:100B1000310590F412968D919C9113976115710592
:100B200021F0FB019383828304C090933B02809366
:100B30003A02FD01329644C0FD01E20FF31F81939A
:100B40009193225031092D933C933AC02091380261
:100B500030913902232B41F420910201309103019D
:100B60003093390220933802209100013091010125
:100B70002115310541F42DB73EB740910401509144
:100B80000501241B350BE0913802F0913902E21780
:100B9000F307A0F42E1B3F0B2817390778F0AC01A0
:100BA0004E5F5F4F2417350748F04E0F5F1F50937D
:100BB0003902409338028193919302C0E0E0F0E063
:100BC000CF01DF91CF9108950F931F93CF93DF93C0
:100BD000009709F48CC0FC013297138212820091B5
:100BE0003A0210913B020115110581F420813181F7
:100BF000820F931F2091380230913902281739074C
:100C000079F5F0933902E093380271C0D80140E0E1
:100C100050E0AE17BF0750F412962D913C911397F8
:100C2000AD012115310509F1D901F3CF9D01DA019B
:100C30003383228360817181860F971F8217930708
:100C400069F4EC0128813981260F371F2E5F3F4F51
:100C5000318320838A819B8193838283452B29F46E
:100C6000F0933B02E0933A0242C01396FC93EE935A
:100C70001297ED01499159919E01240F351FE217FA
:100C8000F30771F480819181840F951F029611966C
:100C90009C938E938281938113969C938E9312974B
:100CA000E0E0F0E0D80112968D919C9113970097A7
:100CB00019F0F8018C01F6CF8D919C9198012E5F6F
:100CC0003F4F820F931F209138023091390228172D
:100CD000390769F4309729F410923B0210923A02D6
:100CE00002C0138212821093390200933802DF91FE
:100CF000CF911F910F910895A0E0B0E0E2E8F6E0F7
:100D00000C941605EC01009721F4CB010E944F05CD
:100D1000B8C0FC01E60FF71F9C0122503109E21711
:100D2000F30708F4ACC0D9010D911C911197061777
:100D30001707B0F00530110508F49FC0C8010497EB
:100D40008617970708F499C002501109061B170B64
:100D5000019311936D937C93CF010E94E4058DC0A4
:100D60005B01A01AB10A4C01800E911EA0913A02BB
:100D7000B0913B0240E050E0E12CF12C109709F4D7
:100D80004AC0A815B905D1F56D907C901197630103
:100D900082E0C80ED11CCA14DB0480F1A3014A19F9
:100DA0005B096A0182E0C80ED11C1296BC901297B2
:100DB0001396AC91B5E0CB16D10440F0B282A38378
:100DC00051834083D9016D937C930AC00E5F1F4FFE
:100DD000C301800F911FF90191838083EB2DFA2FBE
:100DE000E114F10431F0D7011396FC93EE931297BE
:100DF00044C0F0933B02E0933A023FC08D919C9136
:100E000011974817590708F4AC017D0112960D900F
:100E1000BC91A02DB3CF80913802909139028815F2
:100E20009905E1F446175707C8F4809100019091A5
:100E30000101009741F48DB79EB740910401509194
:100E40000501841B950BE817F907C8F4F0933902E4
:100E5000E0933802F901718360830FC0CB010E94D7
:100E60004F057C01009759F0A801BE010E944B0775
:100E7000CE010E94E405C70104C0CE0102C080E09B
:100E800090E0CDB7DEB7EEE00C94320581E090E063
:100E9000F8940C945B07FB01DC0102C001900D92F9
:100EA00041505040D8F70895FB01DC0101900D92AC
:100EB0000020E1F7089510E0CDE5D0E004C0FE0188
:100EC0000E9449052196CE35D107C9F7F894FFCF86
:100ED00000003C02800000000000C6012F015E01FE
:100EE0000D028F016D0181010D0A004861796E6963
:100EF00065205265736561726368202620446576BB
:100F0000656C6F706D656E7400526F626F746963AB
:100F10002041726D20436F6E74726F6C6C6572004D
:100F2000302E302E3100496E697469616C697A69BE
:100F30006E67200020436F6E736F6C65005665729C
:100F400073696F6E3A20004F6E0A004F66660A00A2
:00000001FF
